:020000040800F2
:10000000980600208D0100089D1500089F15000826
:10001000A3150008A7150008AB1500080000000094
:10002000000000000000000000000000B115000802
:10003000AF15000800000000B3150008B515000852
:10004000A7010008A7010008A7010008A7010008F0
:10005000A7010008A7010008A7010008A7010008E0
:10006000A7010008A7010008A7010008A7010008D0
:10007000A7010008A7010008A7010008A7010008C0
:10008000A7010008A7010008A7010008A7010008B0
:10009000A7010008A7010008A7010008A7010008A0
:1000A000A7010008A7010008A7010008A701000890
:1000B000A7010008A7010008A7010008A701000880
:1000C000A7010008A7010008A7010008A701000870
:1000D000A7010008A7010008A7010008A701000860
:1000E000A7010008A7010008A701000800F002F816
:1000F00000F03CF80AA090E8000C82448344AAF186
:100100000107DA4501D100F031F8AFF2090EBAE883
:100110000F0013F0010F18BFFB1A43F0010318473B
:100120007C2700009C270000103A24BF78C878C1C3
:10013000FAD8520724BF30C830C144BF04680C60ED
:10014000704700000023002400250026103A28BF35
:1001500078C1FBD8520728BF30C148BF0B60704739
:100160001FB501F0ACFA1FBD10B510BD01F06BFA60
:100170001146FFF7F5FF01F0B7F901F089FA03B472
:10018000FFF7F2FF03BC01F093FA00000948804733
:1001900009480047FEE7FEE7FEE7FEE7FEE7FEE769
:1001A000FEE7FEE7FEE7FEE704480549054A064B81
:1001B0007047000095020008ED000008980000203C
:1001C00098060020980200209802002000210020BC
:1001D000674A126842F48032654B1A6000BF644A75
:1001E000126802F40030491C10B9B1F5A06FF6D1C5
:1001F0005F4A126812F4003F01D0012000E00020A5
:10020000012842D15B4A126842F01002594B1A6031
:100210001A46126822F003021A601A46126842F067
:1002200002021A60524A5268514B5A601A4652688A
:100230005A601A46526842F480625A601A465268FE
:1002400022F47C125A601A46526842F4E8125A604C
:100250001A46126842F080721A6000BF444A12685F
:1002600012F0007FFAD0424A526822F00302404B5B
:100270005A601A46526842F002025A6000BF3C4A75
:10028000526802F00C02082AF9D1704710B5FFF746
:100290009DFF10BD10B53648006840F0010034499C
:1002A00008600846406834490840314948600846BB
:1002B0000068324908402E4908600846006820F46A
:1002C000802008600846406820F4FE0048604FF433
:1002D0001F008860FFF7DAFF4FF0006028490860D0
:1002E00010BD10B5002100200022214B5B6803F0F7
:1002F0000C0121B1042906D0082928D107E0214B9F
:10030000214C236027E01F4B1F4C236023E0184B38
:100310005B6803F47010164B5B6803F480320223B1
:1003200003EB904022B9194B4343174C23600DE077
:100330000F4B5B6813F4003F04D0144B4343124C43
:10034000236003E00F4B43430F4C236003E00D4B4E
:100350000D4C236000BF00BF054B5B68C3F3031364
:100360000B4CE15C084B1B68CB40074C236010BD75
:1003700000100240002002400000FFF8FFFFF6FEE0
:1003800008ED00E000127A000000002000093D00A6
:100390000400002010B50446CA48844208D1012157
:1003A000042000F024FB0021042000F020FB46E0A4
:1003B000C548844208D10121082000F018FB002123
:1003C000082000F014FB3AE0C048844208D1012123
:1003D000102000F00CFB0021102000F008FB2EE0A4
:1003E000BB48844208D10121202000F000FB0021FD
:1003F000202000F0FCFA22E0B648844208D1012116
:10040000402000F0F4FA0021402000F0F0FA16E05D
:10041000B148844208D10121802000F0E8FA00218F
:10042000802000F0E4FA0AE0AC48844207D10121C0
:10043000801500F0DCFA0021A01500F0D8FA10BDFC
:1004400010B50121084600F0D2FA0021012000F089
:10045000CEFA10BD2DE9F04102460025002600200D
:1004600000230024002791F803C00CF00F0591F839
:1004700003C01CF0100F03D091F802C04CEA050530
:10048000B1F800C01CF0FF0F31D0146800202BE041
:100490004FF0010C0CFA00F3B1F800C00CEA0306AF
:1004A0009E4220D183004FF00F0C0CFA03F7BC439F
:1004B00005FA03FC4CEA040491F803C0BCF1280FD0
:1004C00006D14FF0010C0CFA00FCC2F814C00AE08F
:1004D00091F803C0BCF1480F05D14FF0010C0CFAA4
:1004E00000FCC2F810C0401C0828D1D31460B1F839
:1004F00000C0BCF1FF0F34DD546800202EE000F195
:10050000080C4FF0010808FA0CF3B1F800C00CEA2F
:1005100003069E4221D183004FF00F0C0CFA03F723
:10052000BC4305FA03FC4CEA040491F803C0BCF197
:10053000280F05D100F1080C08FA0CF8C2F8148055
:1005400091F803C0BCF1480F07D100F1080C4FF03F
:10055000010808FA0CF8C2F81080401C0828CED315
:100560005460BDE8F0814FF6FF7101800221817077
:100570000421C17070470246002093680B4201D0ED
:10058000012000E0002070470146886880B2704773
:1005900002460020D3680B4201D0012000E0002079
:1005A00070470146C86880B2704701617047416179
:1005B00070470AB1016100E041617047C160704756
:1005C0004FF480320A43826181618261826982696B
:1005D000704702460020424B18684FF6807318405F
:1005E00040EA021008433E4B186070473D49C8611D
:1005F0007047F0B50A46002300240021002500F0D2
:100600000046B6F1004F02D1354EF16901E0344E9B
:100610007168C0F3034583B200F44016B6F5401F7D
:1006200008D121F070612E4E766826F070662C4F4E
:100630007E6012E000F48016B6F5801F06D1032616
:1006400006FA05F4A14341F0706106E0460D36015B
:1006500003FA06F6B14341F0706122B1460D36014E
:1006600003FA06F6314300F00046B6F1004F02D11E
:100670001B4EF16101E01A4E7160F0BD30B50022F1
:100680008B071C0F0F2303FA04F2154B08338C1051
:1006900053F824309343124C08348D1044F825301D
:1006A00023468C1053F824308C07240F00FA04F4EE
:1006B00023430B4C08348D1044F8253030BD0A49D3
:1006C0000860704700080140000C01400010014024
:1006D0000014014000180140001C014000200140AE
:1006E0000000014000002042DC002042DB4800689E
:1006F00040F00100D949086008464068D8490840E0
:10070000D649486008460068D6490840D349086081
:100710000846006820F4802008600846406820F4FD
:10072000FE0048604FF41F0088607047CB4909689D
:1007300021F48031C94A11601146096821F48021F1
:100740001160B0F5803F03D0B0F5802F0ED106E0E8
:10075000C249096841F48031C04A116007E0BF49CD
:10076000096841F4A021BD4A116000E000BF00BF4C
:10077000704710B501460022002300204A11012ACB
:1007800002D1B64C236806E0022A02D1B34C236A98
:1007900001E0B24C636A01F01F02012494401C4244
:1007A00001D0012000E0002010BD70B5002400251C
:1007B000002600BF3120FFF7DCFF0646641CB4F5BD
:1007C000A06F01D0002EF5D03120FFF7D2FF08B185
:1007D000012500E00025284670BD014600209F4A03
:1007E000106820F0F80040EAC100106070479E4990
:1007F0000860704702460020984B586820F47C102F
:1008000042EA01031843954B5860704796490866C1
:10081000704701460020914A506820F003000843C9
:10082000506070478D48406800F00C0070470146EA
:1008300000208A4A506820F0F0000843506070475A
:1008400001460020854A506820F4E060084350606B
:10085000704701460020814A506820F4605040EA09
:10086000C1005060704729B17C4A527A02437B4BE9
:100870005A7206E0794A527AC343DBB21A40774B88
:100880005A72704779490860704701460020734AE0
:10089000506820F440400843506070470021744A7B
:1008A00011706E4A82F82010012802D0042808D165
:1008B00003E001216E4A117004E005216C4A1170B9
:1008C00000E000BF00BF70476A4908607047634995
:1008D000096A0143614A11627047674908607047BD
:1008E00030B500210022002400235C4D6D6805F026
:1008F0000C0121B1042905D0082923D105E05F4D61
:10090000056022E05D4D05601FE0544D6D6805F403
:100910007012524D6D6805F48034022505EB924249
:100920001CB9574D554305600BE04C4D6D6815F4EF
:10093000003F03D0524D5543056002E04F4D5543F3
:10094000056002E04D4D056000BF00BF434D6D687E
:1009500005F0F00109094B4D6B5C0568DD40456011
:100960003E4D6D6805F4E061090A464D6B5C4568D3
:10097000DD408560394D6D6805F46051C90A414D0F
:100980006B5C4568DD40C560344D6D6805F44041E1
:10099000890B3D4D6B5CC568B5FBF3F5056130BD5A
:1009A00029B12E4A526902432C4B5A6104E02B4A6A
:1009B00052698243294B5A61704729B1274A92698B
:1009C0000243264B9A6104E0244A92698243234BF6
:1009D0009A61704729B1214AD26902431F4BDA61FB
:1009E00004E01E4AD26982431C4BDA61704729B188
:1009F0001A4AD2680243194BDA6004E0174AD268F7
:100A00008243164BDA60704729B1144A12690243D7
:100A1000124B1A6104E0114A126982430F4B1A61AA
:100A200070471A49086070470F49C86470470B49FE
:100A3000C87170470948406A40F0807007494862B1
:100A4000704701460020054A92680A4201D0012001
:100A500000E0002070470149887270470010024092
:100A60000000FFF8FFFFF6FE00004242D8004242BD
:100A700020100240800442423C04424200127A00AC
:100A800000093D00140000202400002040044242E0
:100A9000002109E0002201E0531C9AB240F6B8336D
:100AA0009A42F9DB4B1C99B28142F3DB70474FF459
:100AB0000072FF4B1A604FF48072FE4BC3F8142C87
:100AC0004FF02002C3F8102CFB4AD0604FF02002F8
:100AD000F74B1A60A3F104031A604FF48072F54BD0
:100AE000C3F8102CF44AD1604FF02002F04B1A608A
:100AF000A3F104031A604FF480721A60704700B5C6
:100B000001210020FFF7D3FF4FF47A70FFF7C0FFF9
:100B100000210120FFF7CBFF41F290711020FFF779
:100B2000C6FF4FF41C516020FFF7C1FF0121612077
:100B3000FFF7BDFF02214620FFF7B9FF48F2100181
:100B40001320FFF7B4FF48F2FE011220FFF7AFFFBA
:100B50004FF4A0610220FFF7AAFF41F23001032009
:100B6000FFF7A5FF40F203313020FFF7A0FF40F26E
:100B700003313120FFF79BFF40F203313220FFF7B2
:100B800096FF4FF440713320FFF791FF032134208B
:100B9000FFF78DFF40F203313520FFF788FF142166
:100BA0003620FFF784FF40F203313720FFF77FFF45
:100BB00040F203313820FFF77AFF40F20331392049
:100BC000FFF775FF4FF440713A20FFF770FF0321E4
:100BD0003B20FFF76CFF40F203313C20FFF767FF3B
:100BE0004FF4A0513D20FFF762FF4FF400719220B7
:100BF000FFF75DFF40F203319320FFF758FF40F607
:100C00000D019020FFF753FF41F218010320FFF779
:100C10004EFF40F273110720FFF749FF00BD00B5FA
:100C200043F20801E320FFF742FF1221E720FFF71C
:100C30003EFF41F23121EF20FFF739FF0021012073
:100C4000FFF735FF4FF4E0610220FFF730FF41F27C
:100C500030010320FFF72BFF00210420FFF727FFBF
:100C600040F207210820FFF722FF00210920FFF7AB
:100C70001EFF00210A20FFF71AFF00210C20FFF7BA
:100C800016FF00210D20FFF712FF00210F20FFF7B4
:100C90000EFF00211020FFF70AFF07211120FFF7A8
:100CA00006FF00211220FFF702FF00211320FFF7AB
:100CB000FEFE4FF47A70FFF7EBFE41F290611020D8
:100CC000FFF7F5FE40F227211120FFF7F0FE32205A
:100CD000FFF7DEFE1D211220FFF7E9FE3220FFF7AD
:100CE000D7FE4FF400611320FFF7E1FE1421292005
:100CF000FFF7DDFE0B212B20FFF7D9FE3220FFF797
:100D0000C7FE00212020FFF7D2FE00212120FFF79F
:100D1000CEFE07213020FFF7CAFE40F207713120D6
:100D2000FFF7C5FE06213220FFF7C1FE40F2047135
:100D30003520FFF7BCFE41F604713620FFF7B7FE01
:100D400004213720FFF7B3FE00213820FFF7AFFE64
:100D500040F206713920FFF7AAFE40F201713C20F3
:100D6000FFF7A5FE0F213D20FFF7A1FE0021502037
:100D7000FFF79DFEEF215120FFF799FE0021522041
:100D8000FFF795FE40F23F115320FFF790FE4FF41E
:100D90001C516020FFF78BFE01216120FFF787FEC9
:100DA00000216A20FFF783FE00218020FFF77FFEED
:100DB00000218120FFF77BFE00218220FFF777FED4
:100DC00000218320FFF773FE00218420FFF76FFED0
:100DD00000218520FFF76BFE10219020FFF767FEB2
:100DE00000219220FFF763FE03219320FFF75FFEAF
:100DF0004FF488719520FFF75AFE00219720FFF7E6
:100E000056FE00219820FFF752FE41F21801032000
:100E1000FFF74DFE40F273110720FFF748FE00BDBB
:100E200008B54FF6FF70ADF8000003208DF8020002
:100E300010208DF8030069461F48FFF70BFB08BD23
:100E400008B54FF6FF70ADF8000003208DF80200E2
:100E500048208DF8030069461748FFF7FBFA08BDE4
:100E600070B504464FF40070114908604FF480706B
:100E70001049C1F8140C4FF02000C1F8100C0E48B6
:100E8000C4604FF020000A490860A1F10401086025
:100E90004FF480700860FFF7D3FF4FF4806005497E
:100EA000C1F8140C0448806885B20815034907E0AE
:100EB000140C01400000014000100140100C0140E2
:100EC0000860FFF7ADFF4FF40070FB49086028464B
:100ED00070BD08B501211820FFF76FFD012120200A
:100EE000FFF76BFD4FF4E460ADF8000001208DF8D2
:100EF000020010208DF803006946EF481038FFF714
:100F0000A9FAFFF78DFFEC48006840F4C460EB4994
:100F1000C1F8100C08BD10B5FFF7DBFF0020FFF78C
:100F20009FFFE749088008460088A0F50241303954
:100F300002D1FFF7E4FD01E0FFF771FE0020FFF7AB
:100F40008FFFDF49088010BDDE4908807047DE4909
:100F50000880704730B504460D4621462020FFF733
:100F6000A6FD29462120FFF7A2FD30BD4FF40071F8
:100F7000D64A11604FF48071D04AC2F8101C4FF06D
:100F80002001C2F8101CD249C8604FF02001CF4A9E
:100F90001160C94A11604FF4807111604FF4007103
:100FA000116070474FF40070C84908604FF48070BA
:100FB000C249C1F8140C4FF02000BF4908604FF03F
:100FC0002200C349C8604FF02000C0490860BA49F8
:100FD00008604FF4807008604FF40070086070473C
:100FE0002DE9F04306468946174600240025A04611
:100FF000B04649464046FFF7ADFF00BF1EE0FFF791
:10100000D1FF00250FE037F814000121A940084264
:1010100004D1AD480088FFF7A9FF03E0A948008884
:10102000FFF7A4FF6D1C102DEDD308F1010000F0B7
:10103000FF0849464046FFF78DFF641C182CDED39D
:10104000BDE8F08370B505460E461446A4F12000B5
:10105000C4B204EB44009F4901EB0012314628461C
:10106000FFF7BEFF70BDF0B507460C46002540F205
:101070003F1609E0227831463846FFF7E3FFA6F134
:10108000100086B2641C6D1C207808B1142DF1D3B9
:10109000F0BD10B5044690A12046FFF7E4FF10BD57
:1010A00030B50546002400210846FFF753FFFFF73F
:1010B00079FF00BF03E02846FFF758FF641CB4F532
:1010C000963FF8D330BDF0B504460D4616461F4690
:1010D000B44206DBA01B401C81B25020FFF7E7FCA6
:1010E00003E000215020FFF7E2FC21465120FFF7EA
:1010F000DEFCBD4206DBE81B401C81B25220FFF73C
:10110000D6FC03E000215220FFF7D1FC29465320F2
:10111000FFF7CDFC29462046FFF71CFFF0BD00B5C8
:101120004FF4A073F022591EEF20FFF7CCFF41F2DD
:1011300018010320FFF7BBFC00BD2DE9F041064676
:10114000884615461F46002441463046FFF702FFF9
:101150005FB9FFF727FF00BF04E05A480088FFF798
:1011600005FF641CAC42F8D310E000240CE0FFF74C
:1011700019FF54480088FFF7F9FE701CC6B24146BB
:101180003046FFF7E7FE641CAC42F0D3BDE8F081C7
:10119000F0B505460E4617461C460023224631464A
:1011A0002846FFF7CAFFE919C8B200232246314694
:1011B000FFF7C3FF01233A4631462846FFF7BDFF3C
:1011C000301B401C81B201233A462846FFF7B5FF89
:1011D000F0BD2DE9F04306460F4690460320A0EBF4
:1011E0004809002445468AE07A1991B23219D0B2F2
:1011F000FFF7B0FEFFF7D6FE32480088FFF7B6FED5
:101200007A1B91B23219D0B2FFF7A4FEFFF7CAFEE3
:101210002C480088FFF7AAFE7A1991B2321BD0B28F
:10122000FFF798FEFFF7BEFE26480088FFF79EFEF8
:101230007A1B91B2321BD0B2FFF78CFEFFF7B2FEE1
:1012400020480088FFF792FE3A1991B27219D0B285
:10125000FFF780FEFFF7A6FE1A480088FFF786FE1C
:101260003A1B91B27219D0B2FFF774FEFFF79AFEE3
:1012700014480088FFF77AFE3A1991B2721BD0B277
:10128000FFF768FEFFF78EFE0E480088FFF76EFE40
:101290003A1B91B2721BD0B2FFF75CFEFFF782FEE1
:1012A00008480088FFF762FEB9F1000F20DA062037
:1012B00000EB8400814421E0100C0140000001405B
:1012C0002C000020280000202A000020140C0140DF
:1012D00000100140CC1600082020202020202020D3
:1012E000202020202020202020202020000000007E
:1012F000601B0A2101EB800081446D1E641CAC421E
:101300007FF672AFBDE8F08370B506460024002575
:1013100040F23F110020FFF71DFEFFF743FE00BF24
:1013200014E000250FE056F824000121A9400842EE
:1013300004D163480088FFF719FE03E06148008884
:10134000FFF714FE6D1C202DEDD3641CB4F5166F51
:10135000E7D370BD70B50446002500266688A088D6
:1013600046EA00466589A08945EA0045701B4608A3
:101370002C4441F208010320FFF799FBFFF712FE0E
:10138000002504E02088FFF7F1FDA41C6D1CB54288
:10139000F8D341F218010320FFF789FB70BD10B5A7
:1013A0004FF40070484908604FF480704749C1F815
:1013B000140C4FF02000464908604FF022004549C8
:1013C000C8604FF0200040490860414908604FF470
:1013D00080700860FFF734FD4FF480603B49C1F82E
:1013E000140C3C48806884B2081539490860FFF73E
:1013F00017FD4FF4007036490860204610BD00B557
:1014000000211020FFF753FB00211120FFF74FFBB5
:1014100000211220FFF74BFB00211320FFF747FBB1
:101420001420FFF735FB41F2B0711020FFF73FFBAE
:1014300040F237111120FFF73AFB0520FFF728FB98
:1014400040F239111220FFF732FB0520FFF720FB95
:101450004FF4E8511320FFF72AFB13212920FFF74F
:1014600026FB0520FFF714FB40F273110720FFF75E
:101470001EFB00BD00B540F273110720FFF717FBFC
:1014800000BD00B500210720FFF711FB00BD30B5FE
:10149000054600210846FFF75DFDFFF783FD0024A8
:1014A00009E015F814206100491C695C42EA01203A
:1014B000FFF75CFD641CB4F5963FF2DB30BD000025
:1014C0002A00002028000020140C014000000140E8
:1014D000100C0140001001402A49086000BF294952
:1014E00009680029FBD17047FFF715FD1F20FFF7A2
:1014F000D7FD1F20FFF72BFD4FF6FF70FFF724FDF0
:10150000214909684FF47A72B1FBF2F0B0F1807FA3
:1015100000D31CE020F07F41491E4FF0E0225161D2
:1015200000BF5117002905DA0F210901174A0B23C3
:10153000D15404E00F210901154A5317D15400BFBB
:1015400000214FF0E02291610721116100BF00F0FE
:1015500039F816E00F48C06880F42A400D49C86089
:101560000D48006840F00400C1F80C040846D0F8AB
:101570000C0420F00400C1F80C044FF47A70FFF75B
:10158000ABFFE7E7300000200000002018ED00E08E
:1015900000E400E0001001400C140140704700BF5F
:1015A000FEE700BFFEE700BFFEE700BFFEE77047B3
:1015B0007047704702480068401E01490860704744
:1015C0003000002008B501212020FFF7F6F90121A5
:1015D0001020FFF7F2F910208DF803000420ADF879
:1015E000000003208DF8020069461248FEF732FF22
:1015F00010208DF803004FF47F40ADF80000032069
:101600008DF8020069460C48FEF724FF0B4800687D
:1016100040F004000849C1F80C040846C06840F4D2
:101620007F40C8600846D0F80C0420F00400C1F8E0
:101630000C0408BD00140140001001400C140140CE
:10164000704770477047754600F028F8AE460500B1
:101650006946534620F00700854618B020B5FEF7CE
:10166000A3FDBDE820404FF000064FF000074FF00B
:1016700000084FF0000B21F00701AC46ACE8C009B0
:10168000ACE8C009ACE8C009ACE8C0098D467047B9
:101690000446AFF300802046FEF771FD0048704716
:1016A0003400002001487047704700BF3800002018
:1016B00001491820ABBEFEE726000200704710B5B6
:1016C000FFF7F0FF4FF00001016010BD00000000C7
:1016D000000000000000000000000000000000000A
:1016E00000000000000000000000000000000000FA
:1016F0000000000000000000000000000000800169
:1017000080018001800180018001800180018001D1
:1017100080018001800180010000000080018001C3
:1017200000000000000000000000000000000000B9
:10173000CC00CC00CC00CC00CC00CC0000000000E1
:101740000000000000000000000000000000000099
:101750000000000000000000000000000000000089
:101760000000000000000000600C600C600C3006FF
:101770003006FE1FFE1F300638071803FE1FFE1F2F
:10178000180318038C018C018C01000000008000FC
:10179000E003F80F9C0E8C1C8C188C009800F8014C
:1017A000E007800E801C8C188C189C18B80CF00F69
:1017B000E003800080000000000000000000000046
:1017C00000000E181B0C110C110611061103110359
:1017D0009B018E01C038C06C60446044304430448A
:1017E0001844186C0C380000000000000000E001F4
:1017F000F0033807180618063003F001F000F8006F
:101800009C310E33061E061C061C063FFC73F0219D
:1018100000000000000000000000000000000000C8
:101820000C000C000C000C000C000C000000000070
:1018300000000000000000000000000000000000A8
:101840000000000000000000000000000000000296
:1018500000038001C000C000600060003000300064
:101860003000300030003000300030006000600098
:10187000C000C00080010003000200000000200042
:101880006000C00080018001000300030006000624
:10189000000600060006000600060006000300031E
:1018A00080018001C00060002000000000000000F6
:1018B0000000000000000000C000C000D806F807CB
:1018C000E0013003380700000000000000000000C5
:1018D0000000000000000000000000000000000008
:1018E00000000000000000008001800180018001F4
:1018F0008001FC3FFC3F800180018001800180016C
:1019000000000000000000000000000000000000D7
:1019100000000000000000000000000000000000C7
:101920000000000000000000000000000000800136
:1019300080010001000180000000000000000000A4
:101940000000000000000000000000000000000097
:1019500000000000E007E0070000000000000000B9
:101960000000000000000000000000000000000077
:101970000000000000000000000000000000000067
:101980000000000000000000000000000000C00097
:10199000C000000000000000000000000000000C7B
:1019A000000C00060006000600030003000380038D
:1019B000800180018001C000C000C00060006000A4
:1019C0000000000000000000000000000000E00334
:1019D000F007380E180C0C180C180C180C180C18F2
:1019E0000C180C180C180C18180C380EF007E00323
:1019F00000000000000000000000000000000001E6
:101A00008001C001F00198018801800180018001FE
:101A100080018001800180018001800180018001BE
:101A20000000000000000000000000000000E003D3
:101A3000F80F180C0C180C1800180018000C0006F1
:101A400000038001C000600030001800FC1FFC1F74
:101A50000000000000000000000000000000E001A5
:101A6000F807180E0C0C0C0C000C0006C003C00785
:101A7000000C001800180C180C18180CF807E003DC
:101A80000000000000000000000000000000000C4A
:101A9000000E000F000F800DC00C600C600C300CAD
:101AA000180C0C0CFC3FFC3F000C000C000C000C54
:101AB0000000000000000000000000000000F80F1F
:101AC000F80F180018000C00EC03FC071C0E001C9B
:101AD0000018001800180C181C0C180EF807E0036A
:101AE0000000000000000000000000000000C0072F
:101AF000F00F381C181818000C00CC03EC0F3C0E2B
:101B00001C1C0C180C180C18181C380EF007E003DD
:101B10000000000000000000000000000000FC1FAA
:101B2000FC1F000C00060006000380038001C001BA
:101B3000C000E00060006000700030003000300045
:101B40000000000000000000000000000000E003B2
:101B5000F007380E180C180C180C3806F007F007B0
:101B6000180C0C180C180C180C18380CF80FE00393
:101B70000000000000000000000000000000E00382
:101B8000F007380E1C0C0C180C180C181C1C381EF6
:101B9000F81BE0190018000C000C1C0EF807F001EF
:101BA0000000000000000000000000000000000035
:101BB0000000000000000000800180010000000023
:101BC0000000000000000000000000008001800113
:101BD0000000000000000000000000000000000005
:101BE00000000000000000008001800100000000F3
:101BF00000000000000000000000000080018001E3
:101C00000001000180000000000000000000000052
:101C10000000000000000000000000000010001C98
:101C2000800FE003F8001800F800E003800F001CAC
:101C30000010000000000000000000000000000094
:101C4000000000000000000000000000F81F00007D
:101C500000000000F81F000000000000000000006D
:101C60000000000000000000000000000000000074
:101C70000000000000000000000000000800380024
:101C8000F001C007001F0018001FC007F001380056
:101C90000800000000000000000000000000E00359
:101CA000F80F180C0C180C180018000C0006000394
:101CB0008001C000C000C00000000000C000C000E3
:101CC0000000000000000000000000000000000014
:101CD000E00718180420C229224A11440944094483
:101CE000094409221113E20C024004201818E007ED
:101CF0000000000000000000000000000000800361
:101D00008003C006C006C006600C600C3018301896
:101D10003018F83FF83F1C700C600C6006C006C01D
:101D20000000000000000000000000000000FC03B4
:101D3000FC0F0C0C0C180C180C180C0CFC07FC0FEE
:101D40000C180C300C300C300C300C18FC1FFC073D
:101D50000000000000000000000000000000C007BC
:101D6000F01F38381C300C700660060006000600B4
:101D700006000600060006600C701C30F01FE0072D
:101D80000000000000000000000000000000FE0352
:101D9000FE0F060E0618061806300630063006300E
:101DA00006300630063006180618060EFE0FFE0333
:101DB0000000000000000000000000000000FC3FE8
:101DC000FC3F0C000C000C000C000C00FC1FFC1F66
:101DD0000C000C000C000C000C000C00FC3FFC3F45
:101DE0000000000000000000000000000000F83FBC
:101DF000F83F18001800180018001800F81FF81F06
:101E00001800180018001800180018001800180012
:101E10000000000000000000000000000000E00FD3
:101E2000F83F3C780E6006E007C00300030003FEA5
:101E300003FE03C007C006C00EC03CF0F83FE00F31
:101E400000000000000000000000000000000C3056
:101E50000C300C300C300C300C300C30FC3FFC3FA4
:101E60000C300C300C300C300C300C300C300C3092
:101E700000000000000000000000000000008001E1
:101E8000800180018001800180018001800180014A
:101E9000800180018001800180018001800180013A
:101EA000000000000000000000000000000000062C
:101EB00000060006000600060006000600060006F2
:101EC000000600060006180618063807F003E001B1
:101ED00000000000000000000000000000000630CC
:101EE0000618060C060606038601C6006600760084
:101EF000DE008E0106030606060C06180630066094
:101F000000000000000000000000000000001800B9
:101F10001800180018001800180018001800180001
:101F2000180018001800180018001800F81FF81FF3
:101F300000000000000000000000000000000EE0B3
:101F40001EF01EF01EF036D836D836D836D866CCFD
:101F500066CC66CCC6C6C6C6C6C6C6C686C386C35B
:101F600000000000000000000000000000000C3035
:101F70001C303C303C306C306C30CC30CC308C3150
:101F80000C330C330C360C360C3C0C3C0C380C303F
:101F90000000000000000000000000000000E0075A
:101FA000F81F1C380E70066003C003C003C003C0D6
:101FB00003C003C003C006600E701C38F81FE007A2
:101FC0000000000000000000000000000000FC0F06
:101FD000FC1F0C380C300C300C300C300C18FC1F73
:101FE000FC070C000C000C000C000C000C000C009A
:101FF0000000000000000000000000000000E007FA
:10200000F81F1C380E70066003E003C003C003C055
:1020100003C003C007E006630E3F1C3CF83FE0F737
:1020200000C0000000000000000000000000FE0FE3
:10203000FE1F06380630063006300638FE1FFE0743
:1020400006030606060C061806180630063006605B
:102050000000000000000000000000000000E0039D
:10206000F80F1C0C0C180C180C001C00F803E00FE7
:10207000001E0038063006300E301C1CF80FE0073A
:102080000000000000000000000000000000FE7FD3
:10209000FE7F80018001800180018001800180013C
:1020A0008001800180018001800180018001800128
:1020B00000000000000000000000000000000C30E4
:1020C0000C300C300C300C300C300C300C300C3030
:1020D0000C300C300C300C300C301818F81FE007A6
:1020E000000000000000000000000000000003608D
:1020F0000630063006300C180C180C18180C180C8A
:10210000380E30063006700760036003C001C0015E
:10211000000000000000000000000000000003605C
:10212000C361C361C3616633663366336633663346
:1021300066336C1B6C1B6C1B2C1A3C1E380E380E45
:1021400000000000000000000000000000000FE0A0
:102150000C7018303018700C600EC00780038003BC
:10216000C003E006700C301C18180C300E6007E03D
:10217000000000000000000000000000000003C09C
:1021800006600C301C383818300C6006E007C003BD
:102190008001800180018001800180018001800137
:1021A0000000000000000000000000000000FC7FB4
:1021B000FC7F006000300018000C00060003800166
:1021C000C0006000300018000C000600FE7FFE7F9B
:1021D0000000000000000000000000000000E0031C
:1021E000E00360006000600060006000600060006C
:1021F00060006000600060006000600060006000DF
:10220000600060006000E003E003000000003000B8
:102210003000600060006000C000C000C000C0016D
:102220008001800180010003000300030006000616
:102230000000000000000000000000000000E003BB
:10224000E003000300030003000300030003000396
:102250000003000300030003000300030003000366
:10226000000300030003E003E0030000000000009F
:10227000C001C00160036003600330063006180C23
:10228000180C00000000000000000000000000002A
:10229000000000000000000000000000000000003E
:1022A000000000000000000000000000000000002E
:1022B0000000000000000000000000000000FFFF20
:1022C000FFFF0000000000000000000000000C0004
:1022D0000C000C000C000C000C00000000000000C2
:1022E00000000000000000000000000000000000EE
:1022F00000000000000000000000000000000000DE
:102300000000000000000000F003F8071C0C0C0C9B
:10231000000FF00FF80C0C0C0C0C1C0FF80FF01841
:102320000000000000000000000000000000180095
:102330001800180018001800D803F80F380C1818E7
:1023400018181818181818181818380CF80FD80377
:10235000000000000000000000000000000000007D
:102360000000000000000000C003F007300E180C51
:102370001800180018001800180C300EF007C003E1
:102380000000000000000000000000000000001835
:102390000018001800180018C01BF01F301C181877
:1023A00018181818181818181818301CF01FC01B07
:1023B000000000000000000000000000000000001D
:1023C0000000000000000000C003F00F300C1818DF
:1023D000F81FF81F180018003818301CF00FC0073D
:1023E0000000000000000000000000000000800F5E
:1023F000C00FC000C000C000F007F007C000C00060
:10240000C000C000C000C000C000C000C000C000CC
:1024100000000000000000000000000000000000BC
:102420000000000000000000E00DF80F180E0C0C7A
:102430000C0C0C0C0C0C0C0C0C0C180EF80FE00D0A
:10244000000C0C0C1C06F807F0010000000018003E
:102450001800180018001800D807F80F381C1818B2
:1024600018181818181818181818181818181818EC
:102470000000000000000000000000000000C0009C
:10248000C000000000000000C000C000C000C0008C
:10249000C000C000C000C000C000C000C000C0003C
:1024A0000000000000000000000000000000C0006C
:1024B000C000000000000000C000C000C000C0005C
:1024C000C000C000C000C000C000C000C000C0000C
:1024D000C000C000C000F8007800000000000C0040
:1024E0000C000C000C000C000C0C0C060C038C01F6
:1024F000CC006C00FC009C018C030C030C060C0C43
:102500000000000000000000000000000000C0000B
:10251000C000C000C000C000C000C000C000C000BB
:10252000C000C000C000C000C000C000C000C000AB
:10253000000000000000000000000000000000009B
:1025400000000000000000007C3CFF7EC7E383C168
:1025500083C183C183C183C183C183C183C183C15B
:10256000000000000000000000000000000000006B
:1025700000000000000000009807F80F381C181831
:1025800018181818181818181818181818181818CB
:10259000000000000000000000000000000000003B
:1025A0000000000000000000C003F00F300C1818FD
:1025B00018181818181818181818300CF00FC0032D
:1025C000000000000000000000000000000000000B
:1025D0000000000000000000D803F80F380C1818A5
:1025E00018181818181818181818380CF80FD803D5
:1025F0001800180018001800180000000000000063
:102600000000000000000000C01BF01F301C181864
:1026100018181818181818181818301CF01FC01B94
:102620000018001800180018001800000000000032
:102630000000000000000000B007F0037000300050
:10264000300030003000300030003000300030000A
:10265000000000000000000000000000000000007A
:102660000000000000000000E003F003380E180C2A
:102670003800F003C007000C180C380EF007E00318
:10268000000000000000000000000000000000004A
:102690008000C000C000C000F007F007C000C0000C
:1026A000C000C000C000C000C000C000C00780075C
:1026B000000000000000000000000000000000001A
:1026C000000000000000000018181818181818184A
:1026D00018181818181818181818381CF01FE019AE
:1026E00000000000000000000000000000000000EA
:1026F00000000000000000000C18180C180C180C4A
:10270000300630063006600360036003C001C0017C
:1027100000000000000000000000000000000000B9
:102720000000000000000000C141C141C3616363BB
:10273000636363633636363636361C1C1C1C1C1C21
:102740000000000000000000000000000000000089
:1027500000000000000000001C38381C300C60062F
:1027600060036003600360036006300C381C1C3893
:102770000000000000000000000000000000000059
:1027800000000000000000001830301830187018E9
:10279000600C600CE00CC006C00680038003800360
:1027A00080018001C001F000700000000000000006
:1027B0000000000000000000FC1FFC1F000C0006D1
:1027C00000038001C000600030001800FC1FFC1FE7
:1027D00000000000000000000000000000000003F6
:1027E0008001C000C000C000C000C000C000600088
:1027F0006000300060004000C000C000C000C000A9
:10280000C000C00080010003000000000000800143
:1028100080018001800180018001800180018001B0
:1028200080018001800180018001800180018001A0
:1028300080018001800180018001000000006000B3
:10284000C000C0018001800180018001800100037F
:102850000003000600030001800180018001800167
:1028600080018001C0006000000000000000000046
:10287000000000000000000000000000F010F81F41
:10288000080F000000000000000000000000000031
:10289000000000000000000000000000BC2800084C
:1028A000000000203400000028010008F028000883
:1028B00034000020640600004401000800A24A041D
:1028C00000000000000000000102030406070809E0
:1028D00000000000010203040102030406070809C6
:1028E000020406080000FFFF0000000000000000D6
:04000005080000ED02
:00000001FF
